:020000040000FA
:08000000803102288731CA2F6C
:100010002000AD00AE30FC007C08A3009830FC004E
:100020007C08A4000230AE000030AF0020002E0893
:100030002D07FC007C08423E860001308700010845
:10004000FD002E08233E860087017D0881000130D7
:10005000AE070030AF3D2F08803AFC0080307C02B4
:10006000031D34280A302E02031C3728382816288E
:100070002330FC007C08F6000A30FD007D08F70004
:1000800020002D08883169208031080020002308D5
:100090008039F9007908A8002335F9007908AE0005
:1000A000A21F5328542855282E142E080319592806
:1000B0005A2869282E0A031D5E285F286728003009
:1000C000A3000030A2000030A1000030A000A21761
:1000D00071280030A3000030A2000030A1000030E1
:1000E000A00027088039F9007908A8062735F9000B
:1000F0007908AD00A61F7D287E287F282D142D08A5
:1001000003198328842893282D0A031D8828892809
:1001100091280030A7000030A6000030A500003074
:10012000A400A6179B280030A7000030A6000030CE
:10013000A5000030A4002D0803199F28A028A52899
:100140002E08031DA428A528AE280030A3000030E7
:10015000A2000030A1000030A0009C2A2008F90075
:100160007908F00026089631F826803171082000C1
:10017000B4007008B3003308F900FA01FB01FC0178
:100180007C08AC007B08AB007A08AA007908A900BB
:100190003408F900FA01FB01FC017C08B2007B087D
:1001A000B1007A08B0007908AF002108F900790899
:1001B000F00025089631F826803171082000B4003F
:1001C0007008B3003308F900FA01FB01FC0179085B
:1001D000A9077A08AA3D7B08AB3D7C08AC3D3408F2
:1001E000F900FA01FB01FC017908AF077A08B03D7C
:1001F0007B08B13D7C08B23D2208F9007908F00087
:1002000024089631F826803171082000B400700867
:10021000B3003308F900FA01FB01FC017908A907D2
:100220007A08AA3D7B08AB3D7C08AC3D3408F90058
:10023000FA01FB01FC017908AF077A08B03D7B08A1
:10024000B13D7C08B23D0830A935AA0DAB0DAC0D0F
:10025000890B24292108F9007908F0002408963137
:10026000F826803171082000B4007008B30033080C
:10027000A9073408AA3D0030AB3DAC3D2008F90089
:100280007908F00025089631F826803171082000A1
:10029000B4007008B3003308A9073408AA3D003041
:1002A000AB3DAC3D0830A935AA0DAB0DAC0D890BAB
:1002B00053292008F9007908F00024089631F8261F
:1002C000803171082000B4007008B3003308A9071A
:1002D0003408AA3D0030AB3DAC3D2108F900790857
:1002E000F00026089631F826803171082000B4000D
:1002F0007008B3003308AF073408B03D0030B13D9B
:10030000B23D2208F9007908F00025089631F82658
:10031000803171082000B4007008B3003308AF07C3
:100320003408B03D0030B13DB23D2208F9007908F3
:10033000F00026089631F826803171082000B400BC
:100340007008B3003308F9003408FA00FB01FC011F
:100350000830F935FA0DFB0DFC0D890BA929790838
:10036000AF077A08B03D7B08B13D7C08B23D290853
:10037000F9002A08FA002B08FB002C08FC001830B2
:10038000FC36FB0CFA0CF90C890BC0297908AF0775
:100390007A08B03D7B08B13D7C08B23D0830A935F4
:1003A000AA0DAB0DAC0D890BCF292E082D07F90036
:1003B000FA01FA0D7908823EB300FF307A3DB400AD
:1003C000F8290130AF35B00DB10DB20D890BE2291E
:1003D000AC1FEB29EC29ED292F140130A935AA0D0A
:1003E000AB0DAC0D890BEE29FF30B307FF30B43DE8
:1003F000B11FFB29FC29E129AD01AC1F002A012A0C
:100400001D2AFF302905F900FF302A05FA00FF30C8
:100410002B05FB007F302C05FC007C087B047A0454
:1004200079040319142A152A182AAD01AD0A1D2AC8
:100430002F1C1B2A1C2A1D2A152A2D080319212AC4
:10044000222A4A2A0130AF070030B03D0030B13DCA
:100450000030B23D321C2D2A2E2A4A2A2F08F900DC
:100460003008FA003108FB003208FC000130FD00C2
:10047000FC37FB0CFA0CF90CFD0B382A7C08B20097
:100480007B08B1007A08B0007908AF000130B307EB
:100490000030B43D3408803AF90080307902031D01
:1004A000532AFF303302031C562A572A612A7F3011
:1004B0002000B2008030B1000030B0000030AF004A
:1004C000902A20003408803AF90080307902031D18
:1004D0006B2A0130330203186E2A6F2A7A2A003001
:1004E0002000B2000030B1000030B0000030AF009A
:1004F000A801902A20003308F9007908AE00FF30E7
:10050000AF05FF30B0057F30B1050030B2052E1CBD
:100510008A2A8B2A8C2AB1172E36F9007908B20064
:100520002808F9007908B2043208A3003108A200B3
:100530003008A1002F08A000080022004308210075
:10054000E100220042082100E000220041082100D1
:10055000DF00220040082100DE0020006E0821009C
:10056000E10020006D082100E00020006C0821005F
:10057000DF0020006B082100DE006108E900600850
:10058000E8005F08E7005E08E600C401C5016908ED
:10059000031DD02A80306802031CCF2AD02AE82A03
:1005A00021006608A0006708A1006808A200690889
:1005B000A3001F30A336A20CA10CA00C890BDA2AD1
:1005C00023082204210420040319E72AE82AB92B6E
:1005D00021006608A0006708A1006808A200690859
:1005E000A3000130A035A10DA20DA30D890BF22AA5
:1005F0002308220421042004031DFF2A002B322B90
:1006000020006E08A3006D08A2006C08A1006B0812
:10061000A0006E08A7006D08A6006C08A5006B0876
:10062000A40080314620823120002308B80022082F
:10063000B7002108B6002008B500BF30BC008030EC
:10064000BB000030BA000030B9008C311424823174
:1006500020003808EE003708ED003608EC003508B9
:10066000EB00C92F6608A0006708A1006808A20077
:100670006908A3001F30A336A20CA10CA00C890BA3
:100680003B2B23082204210420040319482B492B67
:10069000802B21302200C4000030C5000030200033
:1006A000B8000030B7000030B6000030B5006E086A
:1006B000E6006D08E5006C08E4006B08E3006E08D6
:1006C000EA006D08E9006C08E8006B08E700963165
:1006D000B826823120006608BC006508BB006408AB
:1006E000BA006308B9008C31142482312000380824
:1006F000EE003708ED003608EC003508EB00C92F96
:10070000E730C407FF30C53D4C302000A300003067
:10071000A2000030A1000030A0006E08A7006D0804
:10072000A6006C08A5006B08A40080314620823129
:1007300020002308EE002208ED002108EC0020082C
:10074000EB006E082100E10020006D082100E000B0
:1007500020006C082100DF0020006B082100DE0073
:100760006108E9006008E8005F08E7005E08E6004D
:10077000D82B803068027F30693B031CC02BC12B13
:10078000C22BC92F8030210068063F30031969064B
:1007900066046704031DCD2BCE2BD82B0030200020
:1007A000EE000030ED000030EC000030EB00C92F0F
:1007B0000D302100E607FB30E73D4A30E83D0030D0
:1007C000E93D6608A0006708A1006808A200690862
:1007D000A3001730A336A20CA10CA00C890BEA2BA6
:1007E0002008813EA400FF30213DA5002408C40755
:1007F0002508C53DF330A0000430A1003530A2002B
:100800003F30A300FF306605A400FF306705A50058
:100810007F306805A60000306905A7002408A007FE
:100820002508A13D2608A23D2708A33D2308E9008D
:100830002208E8002108E7002008E6006908E10036
:100840006808E0006708DF006608DE006108200035
:10085000EE00210060082000ED0021005F0820006C
:10086000EC0021005E082000EB00BF30D200803099
:10087000D1000030D0000030CF006E08D6006D08E7
:10088000D5006C08D4006B08D3008D31C8258231A7
:10089000200052082100E500200051082100E4005A
:1008A000200050082100E30020004F082100E20052
:1008B00040302000D2000030D1000030D0000030A5
:1008C000CF00210065082000D60021006408200028
:1008D000D500210063082000D40021006208200018
:1008E000D3008D31C825823120005208B80051084C
:1008F000B7005008B6004F08B50021006508200079
:10090000BC00210064082000BB0021006308200017
:10091000BA00210062082000B9008C311424823111
:10092000200038082100D100200037082100D00025
:10093000200036082100CF00200035082100CE001D
:1009400051082000A300210050082000A20021002F
:100950004F082000A10021004E082000A000210027
:1009600051082000A700210050082000A600210007
:100970004F082000A50021004E082000A40080316F
:1009800046208231200023082100D50020002208C3
:100990002100D400200021082100D30020002008DD
:1009A0002100D20055082000A30021005408200097
:1009B000A200210053082000A100210052082000BD
:1009C000A000210055082000A700210054082000A5
:1009D000A600210053082000A50021005208200095
:1009E000A400803146208231200023082100D90054
:1009F000200022082100D800200021082100D70073
:100A0000200020082100D6003E302000D200CC304B
:100A1000D100CE30D0001330CF003E30A30078306C
:100A2000A2009E30A1002630A0002100590820001D
:100A3000A700210058082000A60021005708200028
:100A4000A500210056082000A400803146208231F4
:100A500020002308D6002208D5002108D400200851
:100A6000D3008D31C8258231200052082100DD00DD
:100A7000200051082100DC00200050082100DB008C
:100A800020004F082100DA0059082000A3002100AF
:100A900058082000A200210057082000A1002100D2
:100AA00056082000A00021005D082000A7002100BA
:100AB0005C082000A60021005B082000A5002100A2
:100AC0005A082000A40080314620823120002308EB
:100AD0002100AF00200022082100AE0020002108E4
:100AE0002100AD00200020082100AC003F30200094
:100AF000D2002A30D100AA30D000AA30CF003E3038
:100B0000A3009130A200E930A100EE30A000210046
:100B100059082000A700210058082000A600210045
:100B200057082000A500210056082000A4008031AD
:100B30004620823120002308D6002208D500210853
:100B4000D4002008D3008D31C825823120005208FE
:100B50002100DD00200051082100DC0020005008A9
:100B60002100DB0020004F082100DA00550820009A
:100B7000A300210054082000A200210053082000F7
:100B8000A100210052082000A00021005D082000E3
:100B9000A70021005C082000A60021005B082000BF
:100BA000A50021005A082000A4008031462082318F
:100BB000200023082100B300200022082100B200F9
:100BC000200021082100B100200020082100B000F1
:100BD0002F082000D20021002E082000D100210083
:100BE0002D082000D00021002C082000CF0021007B
:100BF00033082000D600210032082000D500210053
:100C000031082000D400210030082000D3008D31AD
:100C1000C8258231200052082100AB002000510875
:100C20002100AA00200050082100A90020004F0840
:100C30002100A8003F302000A3000030A2000030B7
:100C4000A1000030A000210065082000A7002100BD
:100C500064082000A600210063082000A5002100F0
:100C600062082000A4008031462082312000230841
:100C70002100DD00200022082100DC0020002108E6
:100C80002100DB00200020082100DA006508200098
:100C9000A300210064082000A200210063082000B6
:100CA000A100210062082000A00021005D082000B2
:100CB000A70021005C082000A60021005B0820009E
:100CC000A50021005A082000A4008031462082316E
:100CD000200023082100C900200022082100C800AC
:100CE000200021082100C700200020082100C600A4
:100CF0004408F0004508F100890D893B8909F2009C
:100D0000F30001308931D421823173082100CD00F4
:100D10007208CC007108CB007008CA00510820008E
:100D2000A300210050082000A20021004F0820004D
:100D3000A10021004E082000A00021002B08200067
:100D4000D20021002A082000D1002100290820001B
:100D5000D000210028082000CF00210049082000F1
:100D6000D600210048082000D500210047082000B7
:100D7000D400210046082000D3008D31C8258231DF
:100D800020005208A7005108A6005008A5004F08EF
:100D9000A400803146208231200023082100B700C2
:100DA000200022082100B600200021082100B50003
:100DB000200020082100B40037302000A3001730A5
:100DC000A200F730A100D130A00021004D08200082
:100DD000A70021004C082000A60021004B0820009D
:100DE000A50021004A082000A4008031462082315D
:100DF00020002308D2002208D1002108D0002008BA
:100E0000CF00210037082000D6002100360820003E
:100E1000D500210035082000D4002100340820002E
:100E2000D3008D31C8258231200052082100BB003B
:100E3000200051082100BA00200050082100B9000C
:100E400020004F082100B80049082000E6002100DA
:100E500048082000E500210047082000E4002100A8
:100E600046082000E30021003B082000EA002100A2
:100E70003A082000E900210039082000E80021009C
:100E800038082000E7009631B82682312000660835
:100E90002100BF00200065082100BE00200064087A
:100EA0002100BD00200063082100BC00650820006F
:100EB000D200210064082000D10021006308200036
:100EC000D000210062082000CF0021003F08200050
:100ED000D60021003E082000D50021003D0820005A
:100EE000D40021003C082000D3008D31C825823178
:100EF000200052082100C300200051082100C20038
:100F0000200050082100C10020004F082100C0002F
:100F10003F302000A3003130A2007130A1008030AA
:100F2000A00021004D082000A70021004C0820004F
:100F3000A60021004B082000A50021004A0820003F
:100F4000A40080314620823120002308D2002208EC
:100F5000D1002108D0002008CF0021004308200044
:100F6000D600210042082000D500210041082000C1
:100F7000D400210040082000D3008D31C8258231E3
:100F800020005208EE005108ED005008EC004F0818
:100F9000EB000800D83084009630850020308600B1
:100FA00001308700203095311325873100308400CF
:100FB0008830850020308600023087000A30953165
:100FC00013258731B530840097308500A030860026
:100FD000023087004B309531132587312100EE0117
:100FE000EF0140308400013085001D3095310D2522
:100FF00087312300EC01ED01EE0120008931322917
:1010000098340834993455349A348B34EF3400349E
:1010100000340034FB007B08283E86000130870046
:10102000403FF000413FF1007B082A3E860001303E
:1010300087000108F7007708F200F30197311B27BA
:1010400088318030F7007708F0007B088831CD20A8
:101050008831F901FA013F2879087607F700770807
:101060008600013087000108F8007808F0007B084E
:101070008831CD2088310130F9070030FA3D7B08F6
:101080002B3E8600013087007A08803AF7008030D6
:101090007702031D4D2801087902031C50285128AE
:1010A0002C287B08283E860001308700403FF00056
:1010B000413FF1007B082A3E86000130870001088D
:1010C000F7007708F200F301F30A97311B27883104
:1010D00008002000A2002208283E86000130870078
:1010E000403FF000413FF10022082A3E86000130D7
:1010F00087000108F8007808F200F30197311B27F8
:1011000088312000A001A1017708031D88288928C3
:101110008A28B428200020087607F800780886007E
:1011200087010108F9007908F00022088831CD20F4
:101130008831FA00200020087607FB007B08860033
:1011400087017A0881000130A0070030A13D210805
:10115000803AF80080307802031DB028770820021A
:10116000031CB328B4288A2820002208283E8600C1
:1011700001308700403FF000413FF10022082A3E45
:101180008600013087000108F8007808F200F301BA
:10119000F30A97311B2788310800F40070082400F7
:1011A0009100D4289513CE28951BD728D828D2286B
:1011B000141CDB28DC28D8280130F10074084A3ED2
:1011C0008600013087007108810774084A3E860056
:1011D0000130870014300106031DEF28F028F6289F
:1011E00074084A3E86000130870081011108F10031
:1011F0007108F30074084A3E860001308700010838
:10120000031D032904290E297308F1007408133EF5
:10121000860001308700710881001F297308F100E2
:1012200074084A3E86000130870001087407F20006
:101230007208FF3E86000130870071088100700847
:10124000F10074084A3E86000130870001087407E7
:10125000F2007208143E8600013087007108810098
:1012600073080800953119258931A03086000230B5
:101270008700A1308400013085004B302000EF0052
:1012800016001A00EF0B4029A13097314127893110
:1012900059302000EF006F082300A0009F3020008D
:1012A000EF006F08FC00A130963126268931A1306D
:1012B000963199268931A0302000EF006F08FC009C
:1012C000A13096310D2689315B302000EF006F0888
:1012D000FC00A1309531F42589318A318022893191
:1012E00021006D082200DC0021006C082200DB00D8
:1012F00021006B082200DA0021006A082200D900D0
:10130000A1309531A92589312000EF006F08230015
:10131000EE00A1309531C22589312000EF006F0821
:101320002300ED0020008C1E96299729A129230077
:1013300020082000EF006F08F600A13088310A2055
:101340008931A1309531A92589312000EF006F083E
:101350002300EE00A1309531C22589312000EF0035
:101360006F082300ED0034302000EF00F130890BCE
:10137000B729EF0BB7290032A1309531DB25893130
:101380002000EF006F082300EC0001302000EF0088
:1013900023002008033E86000130870020006F08EC
:1013A00081076D2980310228F80078080319D929AE
:1013B000DA29EE29F31FDD29DE29EE297009FA006A
:1013C0007109FB007209FC007309FD00FA0A031998
:1013D000FB0A0319FC0A0319FD0AF6297308FD002C
:1013E0007208FC007108FB007008FA0073087204B0
:1013F00071047004031DFD29FE29072A0030F30043
:101400000030F2000030F1000030F0007F2A96300A
:10141000F4007408F900172A0130F4007408F90781
:101420000130FD36FC0CFB0CFA0C890B112AFE3046
:101430007D05031D1C2A1D2A0C2A312A0130F400C7
:101440007408F9070130FA070030FB3D0030FC3D1D
:101450000030FD3D0130FD36FC0CFB0CFA0C890B15
:101460002B2AFF307D05031D362A372A1E2A412AE2
:101470000130F9020130FA35FB0DFC0DFD0D890B31
:101480003B2AFC1B442A452A4B2A023079020318C6
:101490004A2A4B2A382A79184E2A4F2A572AFF30CF
:1014A000FA05FF30FB057F30FC05FF30FD0503101A
:1014B000F90C7908F400F501F601F7011830F4355C
:1014C000F50DF60DF70D890B5F2A7408FA047508FF
:1014D000FB047608FC047708FD0478080319712AD8
:1014E000722A772AF31F752A762A772AFD177D0834
:1014F000F3007C08F2007B08F1007A08F000080095
:1015000021001D0883390C389D001D1420008E1603
:1015100021009D149D188D2A8E2A8A2A20008E1261
:1015200021001D10BF302000D2008030D1000030DB
:10153000D0000030CF0021001C082200DD00DE01B9
:10154000DF01E0016008F3005F08F2005E08F100CF
:101550005D08F00001308931D4218A317308200000
:10156000B8007208B7007108B6007008B5004330C3
:10157000BC007F30BB000030BA000030B9008C31B5
:1015800014248A3120003808D6003708D5003608E0
:10159000D4003508D3008D31C8258A312000520887
:1015A0002200E800200051082200E7002000500837
:1015B0002200E60020004F082200E5006808200015
:1015C000B800220067082000B7002200660820004B
:1015D000B600220065082000B5004630BC001C3073
:1015E000BB004030BA000030B9008C3114248A317D
:1015F000200038082200E400200037082200E30021
:10160000200036082200E200200035082200E10018
:1016100046302000B8001C30B7004030B600003023
:10162000B500220064082000BC00220063082000EE
:10163000BB00220062082000BA00220061082000DE
:10164000B9008C3114248A31200038082200EC00C3
:10165000200037082200EB00200036082200EA00B4
:10166000200035082200E9006C082000EE0022006E
:101670006B082000ED0022006A082000EC00220028
:1016800069082000EB0082319D228A3120006E081B
:101690002200EC0020006D082200EB0020006C0806
:1016A0002200EA0020006B082200E90045302000FB
:1016B000B8007630B700E030B6000030B500220048
:1016C0006C082000BC0022006B082000BB00220038
:1016D0006A082000BA00220069082000B9008C3195
:1016E00014248A31200038082200EC00200037083A
:1016F0002200EB00200036082200EA002000350816
:101700002200E9003B302000D2005B30D100CF3016
:10171000D0000F30CF0022006C082000D60022003D
:101720006B082000D50022006A082000D4002200A7
:1017300069082000D3008D31C8258A312000520865
:101740002200EC00200051082200EB00200050088D
:101750002200EA0020004F082200E9006C08200067
:10176000B80022006B082000B70022006A082000A1
:10177000B600220069082000B5003F30BC00803070
:10178000BB000030BA000030B9008C3114248A311B
:10179000200038082200EC00200037082200EB006F
:1017A000200036082200EA00200035082200E90067
:1017B00043302000E6008830E5009330E400333009
:1017C000E30022006C082000EA0022006B082000E1
:1017D000E90022006A082000E800220069082000D1
:1017E000E7009631B8268A31200066082200EC0016
:1017F000200065082200EB00200064082200EA00B7
:10180000200063082200E9006C082100ED0022009E
:101810006B082100EC0022006A082100EB00220086
:1018200069082100EA00080020003C088039BD005A
:101830003D08C6003C35BD003D08CD00BB1F212C36
:10184000222C232C4D144D080319272C282C382C1E
:101850004D0A031D2C2C2D2C352C0030BC000030E3
:10186000BB000030BA000030B900BB17BC01402CEF
:101870000030BC000030BB000030BA000030B900BE
:1018800038088039BD003D08C6063835BD003D0822
:10189000CE00B71F4C2C4D2C4E2C4E144E08031965
:1018A000522C532C632C4E0A031D572C582C602CA1
:1018B0000030B8000030B7000030B6000030B5008E
:1018C000B717B8016B2C0030B8000030B7000030FB
:1018D000B6000030B5003808370436043504031D5F
:1018E000722C732C8C2C0030BC000030BB000030FC
:1018F000BA000030B9008030BB047F30BC04460819
:10190000BD003D08BC043C08B8003B08B7003A08DD
:10191000B6003908B500C72D4D08031D902C912C39
:101920009A2C0030B8000030B7000030B60000300C
:10193000B500C72D4D08BD00BE013E08C0004E08D1
:101940003D02BF00031CC0033F087F3EC7000030BC
:10195000403DC8003C08C5003B08C4003A08C3002D
:101960003908C2000030BC000030BB000030BA00B3
:101970000030B9000030CC000030CB000030CA008D
:101980000030C900CE01022D4E080319C82CC92C05
:10199000E32C0130C235C30DC40DC50D890BCA2C13
:1019A0000130B935BA0DBB0DBC0D890BD12CCC1F44
:1019B000DA2CDB2CDC2C39140130C935CA0DCB0DE7
:1019C000CC0D890BDD2C38084502031DF12C37089E
:1019D0004402031DF12C36084302031DF12C350887
:1019E0004202031CF42CF52CFE2C4C173508C202C5
:1019F0003608C33B3708C43B3808C53B0130BD003F
:101A00003D08CE071A304E02031C072D082DC42CAA
:101A1000450844044304420403190F2D102D292DB9
:101A20004914292D0130B935BA0DBB0DBC0D890BF8
:101A3000132DCC1F1C2D1D2D1E2D39140130C93521
:101A4000CA0DCB0DCC0D890B1F2DFF30C707FF3002
:101A5000C83DBB1F2C2D2D2D122DCE01CC1F312D9D
:101A6000322D4E2DFF304905BD00FF304A05BE0026
:101A7000FF304B05BF007F304C05C00040083F04DD
:101A80003E043D040319452D462D492DCE01CE0AB5
:101A90004E2D391C4C2D4D2D4E2D462D4E08031923
:101AA000522D532D7B2D0130B9070030BA3D003047
:101AB000BB3D0030BC3D3C1C5E2D5F2D7B2D3908AD
:101AC000BD003A08BE003B08BF003C08C000013022
:101AD000C100C037BF0CBE0CBD0CC10B692D400846
:101AE000BC003F08BB003E08BA003D08B900013009
:101AF000C7070030C83D4808803ABD0080303D022D
:101B0000031D842DFF304702031C872D882D952D42
:101B1000FF302000C7000030C8000030BC0000309B
:101B2000BB000030BA000030B90020004808803AFD
:101B3000BD0080303D02031D9F2D01304702031878
:101B4000A22DA32DAF2D2000C701C8010030BC007D
:101B50000030BB000030BA000030B900C6012000E0
:101B60004708BD003D08CD004D1CB72DB82DBA2D3E
:101B7000BB17BE2D7F30BD003D08BB054D36BD00F7
:101B80003D08BC004608BD003D08BC04832C08008D
:101B9000200052088039D7005708DF005235D7009F
:101BA0005708E100D11FD52DD62DD72D611461081E
:101BB0000319DB2DDC2DEC2D610A031DE02DE12D39
:101BC000E92D0030D2000030D1000030D0000030CC
:101BD000CF00D117D201F42D0030D2000030D10057
:101BE0000030D0000030CF0056088039D7005708A9
:101BF000E00060085F060319FE2DFF2D002E5F1721
:101C00005635D7005708E000D51F072E082E092E9D
:101C10006014600803190D2E0E2E1E2E600A031D7F
:101C2000122E132E1B2E0030D6000030D5000030AF
:101C3000D4000030D300D517D601262E0030D600B0
:101C40000030D5000030D4000030D30061086002BD
:101C500003182B2E2C2E702E5F1F2F2E302E342E7D
:101C60008030D7005708DF066108D7005708E20028
:101C70006008D7005708E1006208D7005708E00065
:101C80004F08D7005708E2005308D7005708CF0085
:101C90006208D7005708D3005008D7005708E20061
:101CA0005408D7005708D0006208D7005708D4005E
:101CB0005108D7005708E2005508D7005708D1004F
:101CC0006208D7005708D5005208D7005708E2002D
:101CD0005608D7005708D2006208D7005708D60028
:101CE000E2016008D700D8015808DA0061085702FD
:101CF000D900031CDA035A08803ADB0080305B020B
:101D0000031D842E1A305902031C872E882EC02EE4
:101D100020005208510450044F04031D902E922EAF
:101D20000130932E0030D7005708E2000030D20077
:101D30000030D1000030D0000030CF006008D70064
:101D40005708E100C72E621CA62EA72EAD2E6236C4
:101D50000138D7005708E200AF2E0310E20C4F1CE9
:101D6000B22EB32EB42EE2170130D700D237D10CE9
:101D7000D00CCF0CD70BB62E0130D7005708E10797
:101D8000200060086102031CC62EC72EA32E5F1B15
:101D9000CA2ECB2E032F6108031DCF2ED02ED92E95
:101DA0000030D2000030D1000030D0000030CF0031
:101DB000FF2F5308CF075408D03D5508D13D560892
:101DC000D23D521CE42EE52E8F2F621CE82EE92E08
:101DD000EF2E62360138D7005708E200F12E0310CB
:101DE000E20C4F1CF42EF52EF62EE2170130D70030
:101DF000D237D10CD00CCF0CD70BF82E0130D70036
:101E00005708E1078F2F5208803AD7005608803ACA
:101E10005702031D152F55085102031D152F540895
:101E20005002031D152F53084F020318182F192FA6
:101E3000512FFF30D700FF30D800FF30D900FF30DE
:101E4000DA004F085302DB005008543BDC00510815
:101E5000553BDD005208563BDE005B08D7075C08A7
:101E6000D83D5D08D93D5E08DA3D5A08D2005908D0
:101E7000D1005808D0005708CF008030D70057084D
:101E8000DF06E209E20A6208031D472F482F592F97
:101E90000130CF070030D03D0030D13D0030D23D81
:101EA000592F5308CF025408D03B5508D13B560850
:101EB000D23B5208510450044F04031D602F612F80
:101EC0008B2F6208031D652F662F8B2F0030D200E9
:101ED0000030D1000030D0000030CF00FF2F0130A3
:101EE000CF35D00DD10DD20D890B702FE21F792F78
:101EF0007A2F7B2F4F14621C7E2F7F2F822F03148B
:101F0000E20D842F0310E20D61080319882F892F39
:101F10008B2F0130E102D11F8E2F8F2F6F2FE00109
:101F2000E21F932F942FA22F62087F390319992F54
:101F30009A2F9D2FE001E00AA22F4F1CA02FA12F66
:101F4000A22F9A2F60080319A62FA72FD42F013094
:101F5000CF070030D03D0030D13D0030D23D521C83
:101F6000B22FB32FD42F4F08D7005008D8005108F4
:101F7000D9005208DA000130DB00DA37D90CD80C6E
:101F8000D70CDB0BBD2F5A08D2005908D1005808D6
:101F9000D0005708CF00610A0319CF2FD02FD42FBC
:101FA0000130D7005708E107610A0319D82FD92F4C
:101FB000DE2F6108031DDD2FDE2FEC2F0030D20055
:101FC0000030D1000030D0000030CF006108031D88
:101FD000EA2FEB2FEC2FDF01611CEF2FF02FF22FF8
:101FE000D117F62F7F30D7005708D1056136D700BB
:101FF0005708D200DF1FFD2FFE2FFF2FD21708003A
:102A100021009E1324000C12080064008001013183
:102A2000890B0E2D0034FE0012001E00FE0B142D2B
:102A3000003495312325953195310825953195310F
:102A400041259531080023008C018E0121000E10D4
:102A50008E140E118E118E128C160C110C16230072
:102A60000C1608002000AC002030AB002B08A3009F
:102A70000830A4000030A5002C0897316B27953151
:102A80000800240011081410953153259531953113
:102A9000662595316830F100E430890B4D2DF10B3E
:102AA0004D2D0032080024001508F039013895003A
:102AB000951615121417941310303D00A000113014
:102AC0003C00A10011303D00A300080020000E15BD
:102AD0000630F0003030890B6B2DF00B6B2D00327F
:102AE00020000E116830F000E430890B752DF00BDA
:102AF000752D003208002000A50022003F082000AC
:102B0000A40022003E082000A3002330FC007C0823
:102B1000F6000230FD007D08F700250888316920A5
:102B2000953108002000A50022003B082000A400E9
:102B300022003A082000A3002330FC007C08F600A5
:102B40000230FD007D08F7002508883169209531A5
:102B500008002000A500220037082000A400220061
:102B600036082000A3002330FC007C08F600023069
:102B7000FD007D08F7002508883169209531200087
:102B8000240808002000A500220031082000A4002D
:102B9000220030082000A3002330FC007C08F6004F
:102BA0000230FD007D08F700250888316920953145
:102BB0002000240808002000A30022003308200081
:102BC000A500220032082000A4002430FC007C086C
:102BD000F6000230FD007D08F700230888316920E7
:102BE00095312000250808002000A500A601A701B6
:102BF000BB30A3002308A6007C08A3002308A7007D
:102C00002630A3002308F6000230A4002408F700B1
:102C1000250888316920953108002000A500A6010B
:102C2000A7018130A3002308A6007C08A300230885
:102C3000A7002630A3002308F6000230A4002408D1
:102C4000F700250888316920963108002000A5008A
:102C5000A601A7019130A3002308A6007C08A300C9
:102C60002308A7002630A3002308F6000230A400A2
:102C70002408F700250888316920963108002000D3
:102C8000A500A301A401B930FC007C08A30025081D
:102C9000403E8600013087000108FC007C08A4004B
:102CA0002330FC007C08F6000230FD007D08F700B0
:102CB000250888316920963108002000A500A3016D
:102CC000A401B830FC007C08A30025082B3E860038
:102CD000013087000108FC007C08A4002330FC00C0
:102CE0007C08F6000230FD007D08F70025088831D9
:102CF0006920963108002000A500A301A401A93095
:102D0000FC007C08A3002508413E860001308700B6
:102D10000108FC007C08A4002330FC007C08F600BD
:102D20000230FD007D08F7002508883169209631C2
:102D300008002000A500A301A401BC30FC007C0811
:102D4000A30025082B3E8600013087000108FF3EC6
:102D5000FC007C08A4002330FC007C08F600023054
:102D6000FD007D08F70025088831692096310800AC
:102D700080302000E6066A08D2006908D1006808A1
:102D8000D0006708CF006608D6006508D500640843
:102D9000D4006308D3008D31C82596312000520835
:102DA000E6005108E5005008E4004F08E300080081
:102DB000673467346734673467346734673467343B
:102DC00011340034BD340634A334013423340034C8
:102DD00027340034013400342934003428340034DA
:102DE00024340034AD34033428340034B734103480
:102DF000F800F401F5017008F200F3017208F60022
:102E00007308F700781C052F062F0A2F7608F407A1
:102E10007708F53D0130F635F70D890B0B2F0310C0
:102E2000F80C7808031D152F162F022F7508F100D6
:102E30007408F00008007308031D1F2F202F312F86
:102E40000130F400720A252FF435890B242F740801
:102E5000FF3AF50070088600710887007508810543
:102E6000402F0130F400720A362FF435890B352FCC
:102E70007408F500700886007108870075088104E1
:102E800008002000B0003008803108209731200071
:102E9000300896315D2697312000300896313F2664
:102EA00097312000300896317B269731200030087A
:102EB00095317B25973120003008953132259731A7
:102EC000200030089631992697312000300895313E
:102ED0009225973108002000A600A701A801A901AA
:102EE000AA012508803AFC0080307C02031D7A2F5D
:102EF0000130240203187D2F7E2F7F2FB42F200056
:102F000029082307FC007C0886000230870001089E
:102F1000FD007D08A70029082307FC007C08860027
:102F2000023087000230413FA8002730FC007C08B7
:102F3000F6000230FD007D08F70026088831692080
:102F4000973102302000A9070030AA3D2A08803AB4
:102F5000FC002508803A7C02031DB02F24082902BA
:102F6000031CB32FB42F7F2F08000034003400342B
:102F700000340034003400340034003400340034B1
:102F800000340034003400340034003400340034A1
:102F90000034003400340034003400340034003491
:102FA0000034003400340034003400340034003481
:102FB000003400340034003400340C340034023463
:102FC000043400340034003400340034003400345D
:102FD0000034003400340034003400340034003451
:102FE000003400340034003400343034E4346734C6
:102FF0006734673467346734673467346734003460
:1030000026349E3478343E34EE34E93491343E3400
:103010001334CE34CC343E34AA34AA342A343F3468
:10302000D134F734173437348034713431343F3489
:020000040001F9
:06000E00FC3FFF1E9F3FB6
:00000001FF
