:020000040000FA
:08000000803102288731D92F5D
:10071000853110250800640080010131890B8C2B84
:100720000034FE0012001E00FE0B922B003420004D
:10073000D8004230D7005708CF000830D000003032
:10074000D10058088531E02508002000D1003F087D
:10075000D0003E08CF004F30FC007C08F60002308D
:10076000FD007D08F70051088731092708002000A7
:10077000D1004108D0004008CF004F30FC007C0879
:10078000F6000230FD007D08F70051088731092787
:1007900008002000D1003B08D0003A08CF004F30BD
:1007A000FC007C08F6000230FD007D08F7005108CF
:1007B0008731092708002000CF003708D10036080C
:1007C000D0005030FC007C08F6000230FD007D08AF
:1007D000F7004F0887310927200051080800200042
:1007E000CF003108D1003008D0005030FC007C0828
:1007F000F6000230FD007D08F7004F088731092719
:100800002000510808002000CF003308D100320832
:10081000D0005030FC007C08F6000230FD007D085E
:10082000F7004F08873109272000510808002000F1
:10083000CF003908D1003808D0005030FC007C08C7
:10084000F6000230FD007D08F7004F0887310927C8
:1008500020005108080020000E150630F00030304E
:10086000890B302CF00B302C003220000E11683038
:10087000F000E430890B3A2CF00B3A2C00320800DF
:100880002000D100D201D301BB30CF004F08D200ED
:100890007C08CF004F08D3005230CF004F08F6003D
:1008A0000230D0005008F7005108873109270800AE
:1008B0002000D100D201D3012530CF004F08D20053
:1008C0007C08CF004F08D3005230CF004F08F6000D
:1008D0000230D0005008F70051088731092708007E
:1008E0002000D100D201D3018130CF004F08D200C7
:1008F0007C08CF004F08D3005230CF004F08F600DD
:100900000230D0005008F70051088731092708004D
:100910002000D100D201D3019130CF004F08D20086
:100920007C08CF004F08D3005230CF004F08F600AC
:100930000230D0005008F70051088731092708001D
:1009400023008C018E0124001508F0390138950030
:10095000951615121417941310303D00A0002100B5
:100960000E1011303C00A10021008E1411303D000A
:10097000A30021008E1108002000D100CF01D0017A
:10098000B930FC007C08CF005108403E860087014A
:100990000108FC007C08D0004F30FC007C08F60009
:1009A0000230FD007D08F700510887310927080053
:1009B0002000D100CF01D001B830FC007C08CF006E
:1009C00051082B3E860087010108FC007C08D000FE
:1009D0004F30FC007C08F6000230FD007D08F70077
:1009E00051088731092708002000D100CF01D0012C
:1009F000A930FC007C08CF005108413E86008701E9
:100A00000108FC007C08D0004F30FC007C08F60098
:100A10000230FD007D08F7005108873109270800E2
:100A200021000E118E118E1224001108141078303E
:100A3000210099048431A024853121008E12843153
:100A40002B24853121000C116830F100E430890B32
:100A5000272DF10B272D003208007308031D412DAF
:100A60000130F400720A352DF435890B342D7408E9
:100A7000FF3AF50070088600710887007508810547
:100A800008000130F400720A462DF435890B452D1B
:100A90007408F500700886007108870075088104E5
:100AA00008002000DC005C088531A6258531200087
:100AB0005C088431D824853120005C088431BC2452
:100AC000853120005C088431F424853120005C08E5
:100AD0008331B723853120005C088331972385312A
:100AE00020005C088331A523853120005C08833118
:100AF000C923080067346734673467346734673460
:100B00006734673411340034BD340634A3340134FF
:100B100023340034273400340134003429340034C1
:100B20002834003424340034AD3403342834003401
:100B3000BC340734B73410349834083499345534FD
:100B40009A348B34EF340034003400342000D90060
:100B5000AE30FC007C08CF009830FC007C08D00050
:100B60000230DA000030DB0020005A085907FC0090
:100B70007C08423E860087010108FD005A084F3E6E
:100B8000860087017D0881000130DA070030DB3DF7
:100B90005B08803AFC0080307C02031DD12D0A30B6
:100BA0005A02031CB42D4F30FC007C08F6000A30BA
:100BB000FD007D08F700200059088731092708004B
:100BC0002000D200D301D401D501D6015108803ACA
:100BD000FC0080307C02031DEF2D01305002031C0D
:100BE0000800200055084F07FC007C08860087019C
:100BF0000108FD007D08D30055084F07FC007C0864
:100C000086008701413FD4005330FC007C08F60089
:100C10000230FD007D08F700520887310927853131
:100C200002302000D5070030D63D5608803AFC003F
:100C30005108803A7C02031D1F2E500855020318EC
:100C40000800F12DF300700824009100951F2A2E52
:100C50009513232E141C2A2E7008F10073084A3EA7
:100C60008600870101087307F2007208143E8600AF
:100C70008701710881000130F10073084A3E860047
:100C800087017108810773084A3E86008701143086
:100C90000102031C502E73084A3E86008701810121
:100CA0001108F10073084A3E8600870101087307A6
:100CB000F2007208860087017108810073084A3EBD
:100CC0008600870101087307F1007108860087011B
:100CD00001080800003400340034003400340034CB
:100CE0000034003400340034003400340034003464
:100CF0000034003400340034003400340034003454
:100D00000034003400340034003400340034003443
:100D10000034003400340034003400340034003433
:100D2000003400340C34003402340834003400340D
:100D30000034003400340034003400340034003413
:100D40000034003400340034003400340034003403
:100D5000003400342034E434673467346734673453
:100D600067346734673467340034FA007A08283E01
:100D700086008701403FF000413FF1007A082A3E9B
:100D8000860087010108F6007608F200F30185313C
:100D90002D258631F0017A08863122268631F80128
:100DA000F9017A082B3E860087017908803AF6001F
:100DB00080307602031DDE2E010878020318F42E1F
:100DC000F0017A08863122268631F60078087A0703
:100DD000F70077082C3E86008701760881000130F5
:100DE000F8070030F93DD12E7A08283E86008701A9
:100DF000403FF000413FF1007A082A3E860087011B
:100E00000108F6007608F200F301F30A85312D257A
:100E100008002000CE004E08283E86008701403F93
:100E2000F000413FF1004E082A3E8600870101088C
:100E3000F8007808F200F30185312D258731200074
:100E4000CC01CD01770803194D2F20004C087607FF
:100E5000F8007808860087010108F9007908F00099
:100E60004E08863122268731FA0020004C0876078A
:100E7000FB007B08860087017A0881000130CC07DF
:100E80000030CD3D4D08803AF80080307802031DD7
:100E90004B2F77084C02031C252F20004E08283EBC
:100EA00086008701403FF000413FF1004E082A3E96
:100EB000860087010108F8007808F200F301F30AC0
:100EC00085312D25080021000C168C1683318823CE
:100ED00087312030860001308700A0308400003048
:100EE00085004B302000DD0016001A00DD0B742F4A
:100EF000A0308531512587315F302000DD005D084D
:100F0000FC00A03084318824873140302000DD008F
:100F10005D08FC00A0308431582487316430200003
:100F2000DD005D08FC00A030843140248731B03002
:100F30002000DD005D08FC00A03084317024873182
:100F4000A0308431172487312000DD005D082100A6
:100F5000ED00A0308331DB2387312000DD005D0808
:100F60002100EC00A0308331EF2387312000DD0029
:100F70005D082100EB00A03084310324873120007C
:100F8000DD005D082100EE006E087F39031DA02FF3
:100F900003302000DE000830DD007730890BCE2FD3
:100FA000DD0BCE2FDE0BCE2FA0308631B52687315C
:100FB000A02F7A30840085308500203086000030F4
:100FC00087002C308331912387316A30840086304A
:100FD000850020308600013087004B30833191231B
:100FE00087315F30840000308500113083318B23DE
:100FF0002100EB01EC01ED01EE0120008731632FB0
:020000040001F9
:06000E00FC3FFF1E9F3FB6
:00000001FF
