:020000040000FA
:08000000803102288731D12F65
:1007FE00853122250800640080010131890B032C0C
:10080E000034FE0012001E00FE0B092C00342834AA
:10081E002834BC340734B73410342000B700E53028
:10082E00B6003608AC000A30AD000030AE00370816
:10083E008631292608002000B0006C08AF006B0836
:10084E00AE002E30AC002C08A6000230AD002D08F4
:10085E00A70030088631BB2608002000B0006E08C5
:10086E00AF006D08AE002E30AC002C08A600023092
:10087E00AD002D08A70030088631BB2608002000E9
:10088E000E150630F0003030890B4B2CF00B4B2C34
:10089E00003220000E116830F000E430890B552C28
:1008AE00F00B552C003208002000B0002100640827
:1008BE002000AF00210063082000AE002E30AC00F7
:1008CE002C08A6000230AD002D08A7003008863196
:1008DE00BB260800483445344C344C344F34203455
:1008EE002034203424340034AD340C34983488341D
:1008FE00993455349A348B34A6340034EF34303472
:10090E002000AF00B001B1019130AD002D08B00054
:10091E002C08AD002D08B1003030AD002D08A6001A
:10092E000230AE002E08A7002F088631BB26080025
:10093E002000B000AE01AF01B930AC002C08AE0003
:10094E00300886008701583FAF002E30AC002C08CF
:10095E00A6000230AD002D08A70030088631BB2658
:10096E0008002000B000AE01AF01B830AC002C087A
:10097E00AE00300886008701573FAF002E30AC0026
:10098E002C08A6000230AD002D08A70030088631D5
:10099E00BB2608002000B000AE01AF01A930AC00AC
:1009AE002C08AE00300886008701593FAF002E306C
:1009BE00AC002C08A6000230AD002D08A7003008B0
:1009CE008631BB26080023008C018E0124001508F9
:1009DE00F03901389500951615121417941310302E
:1009EE003D00A00021000E1011303C00A10021009E
:1009FE008E1411303D00A30021008E11080020003E
:100A0E00B000AE01AF018130AC002C08AE00300852
:100A1E00223E860087010108AC002C08AF002E3064
:100A2E00AC002C08A6000230AD002D08A70030083F
:100A3E008631BB26080021000E118E118E12240065
:100A4E00110814107830210099048431EA2485317C
:100A5E0021008E1284314624853121000C11200094
:100A6E00EF016830F100E430890B3B2DF10B3B2D8B
:100A7E0000320800003400340034003400340034F6
:100A8E0000340034003400340034003400340034B8
:100A9E000034003400340034003400340C3400349C
:100AAE00023408343034E4346734673467346734DE
:100ABE006734673467346734AC347308031D782D9C
:100ACE000130F400720A6C2DF435890B6B2D74080D
:100ADE00FF3AF500700886007108870075088105D9
:100AEE0008000130F400720A7D2DF435890B7C2D3F
:100AFE007408F50070088600710887007508810477
:100B0E0008002000BB003B088531EF258531200011
:100B1E003B088431B824853120003B0884319F2462
:100B2E00853120003B088431D124853120003B08DB
:100B3E0084313424853120003B08843114248531DE
:100B4E0020003B0884312224853120003B0885316A
:100B5E000625853120003B0884315B248531200039
:100B6E003B08843134240800F5007008F100710848
:100B7E00F3000930F6000030F70076087507F10033
:100B8E00710886008701493FF4007408F100760869
:100B9E007507F20072080A3E86008701710881000F
:100BAE00FF30F607FF30F73D7708803AF1008030CE
:100BBE007102031DE42D013076020318C42D730853
:100BCE00F10075080A3E8600870171088100080051
:100BDE002000B800AE30AC002C08AE009830AC004F
:100BEE002C08AF000230B9000030BA0020003908DE
:100BFE003807AC002C08183E860087010108AD00AE
:100C0E0039082E3E860087012D0881000130B90774
:100C1E000030BA3D3A08803AAC0080302C02031DF9
:100C2E001A2E0A303902031CFD2D2E302000AC0086
:100C3E002C08A6000A30AD002D08A7003808863112
:100C4E00BB2608002000B100B201B301B401B5010A
:100C5E002E08803AAF0080302F02031D382E01304F
:100C6E002D02031C0800200034082C07AF002F08AB
:100C7E00860087010108B0003008B20034082C0746
:100C8E00AF002F0886008701413FB3003230AF001E
:100C9E002F08A6000230B0003008A70031088631B8
:100CAE00BB26863102302000B4070030B53D350832
:100CBE00803AAF002E08803A2F02031D682E2D08B1
:100CCE003402031808003A2E2000A5007808F90017
:100CDE007908A0000930A3000030A40020002308EA
:100CEE002507F9007908FF3E860087010108FA0002
:100CFE007A08A1002108F90023082507FA007A08CE
:100D0E008600870179088100FF30A307FF30A43DDC
:100D1E002408803AF90080307902031D982E0130A4
:100D2E002302031C9C2E752E951378082400910027
:100D3E00951B9B2E20002008F900250886008701B0
:100D4E00790881002400141CA92E1108F9007908D5
:100D5E002000A2002208F9007908F000250885314C
:100D6E00BB25200022080800FD007D08143E8600E9
:100D7E008701403FF000413FF1007D08860087016A
:100D8E00563FF200F301853164258631FB01FC01EB
:100D9E00200027080319FB2E7B0820002607A80039
:100DAE002808860087010108A9002908F8007D0897
:100DBE0086316B2686312000AA007B082607AB0001
:100DCE002B08860087012A0881000130FB070030BE
:100DDE00FC3D7C08803AA80080302802031DF92EC5
:100DEE0027087B02031CD32E7D08143E8600870144
:100DFE00403FF000413FF1007D0886008701563FDD
:100E0E00F200F301F30A85316425080021000C1667
:100E1E008C168331FF238731203086000130870006
:100E2E00463084000030850023302000BC001600C0
:100E3E001A00BC0B1E2F4630860000308700B630DD
:100E4E008400003085002330BC0016001A00BC0B55
:100E5E002C2FB6308531882587317F302000BC009D
:100E6E003C08AC00B630843187248731D9308600F7
:100E7E00003087003E3084000030850008302000AE
:100E8E00BC0016001A00BC0B482F3E302000BC00E0
:100E9E003C08B100B63087316C2787310330200013
:100EAE00BD000830BC007730890B5B2FBC0B5B2F6D
:100EBE00BD0B5B2FA4302000BC003C082100D800E5
:100ECE00B6308531062587314C2F2000B600AC3068
:100EDE00B2003608223E86008701320881003608AD
:100EEE0085310625873120003608143E860087019D
:100EFE00403FF000413FF100360886008701563F23
:100F0E00F200F30185316425873180302000B20074
:100F1E003208F800360886316B2687312000B4017E
:100F2E00B5013608173E860087013508803AB200B3
:100F3E0080303202031DA52F010834020318BE2F84
:100F4E00200034083107B2003208860087010108FC
:100F5E00B3003308F800360886316B26873100005F
:100F6E00000001302000B4070030B53D982F20005E
:100F7E003608143E86008701403FF000413FF100E5
:100F8E00360886008701563FF200F301F30A8531D9
:100F9E00642508000E308400843085006930860098
:100FAE000030870006308431082487317130840088
:100FBE0084308500D93086000030870016308431A9
:100FCE00082487314130840085308500203086002A
:100FDE00013087002330843108248731EF01A0309F
:100FEE00840000308500393084310224200087319E
:020FFE000D2FB5
:020000040001F9
:06000E00FC3FFF1F9F3FB5
:00000001FF
